{
  "_format": "hh-sol-artifact-1",
  "contractName": "AnnouncementBoard",
  "sourceName": "contracts/AnnouncementBoard.sol",
  "abi": [
    {
      "inputs": [
        {
          "internalType": "uint256",
          "name": "_maxAnnouncementCount",
          "type": "uint256"
        }
      ],
      "stateMutability": "nonpayable",
      "type": "constructor"
    },
    {
      "anonymous": false,
      "inputs": [
        {
          "indexed": false,
          "internalType": "address",
          "name": "publisher",
          "type": "address"
        },
        {
          "indexed": false,
          "internalType": "uint256",
          "name": "nonce",
          "type": "uint256"
        }
      ],
      "name": "Announce",
      "type": "event"
    },
    {
      "inputs": [
        {
          "internalType": "string",
          "name": "_announcement",
          "type": "string"
        }
      ],
      "name": "announce",
      "outputs": [
        {
          "internalType": "uint256",
          "name": "",
          "type": "uint256"
        }
      ],
      "stateMutability": "nonpayable",
      "type": "function"
    },
    {
      "inputs": [],
      "name": "getAliveAnnouncements",
      "outputs": [
        {
          "internalType": "string[]",
          "name": "",
          "type": "string[]"
        },
        {
          "internalType": "uint256[]",
          "name": "",
          "type": "uint256[]"
        }
      ],
      "stateMutability": "view",
      "type": "function"
    },
    {
      "inputs": [],
      "name": "getAnnouncementsCount",
      "outputs": [
        {
          "internalType": "uint256",
          "name": "",
          "type": "uint256"
        }
      ],
      "stateMutability": "view",
      "type": "function"
    },
    {
      "inputs": [
        {
          "internalType": "uint256",
          "name": "nonce",
          "type": "uint256"
        }
      ],
      "name": "takedown",
      "outputs": [],
      "stateMutability": "nonpayable",
      "type": "function"
    }
  ],
  "bytecode": "0x608060405234801561001057600080fd5b506040516110af3803806110af8339818101604052810190610032919061008a565b8060008190555060006001819055506000600381905550506100b7565b600080fd5b6000819050919050565b61006781610054565b811461007257600080fd5b50565b6000815190506100848161005e565b92915050565b6000602082840312156100a05761009f61004f565b5b60006100ae84828501610075565b91505092915050565b610fe9806100c66000396000f3fe608060405234801561001057600080fd5b506004361061004c5760003560e01c80631b34fb02146100515780635bcbedcc146100705780635fabd0cd1461008c578063ea0a5237146100aa575b600080fd5b6100596100da565b604051610067929190610a40565b60405180910390f35b61008a60048036038101906100859190610ab7565b61034c565b005b6100946105b5565b6040516100a19190610af3565b60405180910390f35b6100c460048036038101906100bf9190610c43565b6105bf565b6040516100d19190610af3565b60405180910390f35b606080600060015467ffffffffffffffff8111156100fb576100fa610b18565b5b60405190808252806020026020018201604052801561012e57816020015b60608152602001906001900390816101195790505b509050600060015467ffffffffffffffff81111561014f5761014e610b18565b5b60405190808252806020026020018201604052801561017d5781602001602082028036833780820191505090505b50905060006003546001546101929190610cbb565b9050600080600190505b82811161033d576000600260008381526020019081526020016000206040518060600160405290816000820160009054906101000a900473ffffffffffffffffffffffffffffffffffffffff1673ffffffffffffffffffffffffffffffffffffffff1673ffffffffffffffffffffffffffffffffffffffff16815260200160018201805461022990610d40565b80601f016020809104026020016040519081016040528092919081815260200182805461025590610d40565b80156102a25780601f10610277576101008083540402835291602001916102a2565b820191906000526020600020905b81548152906001019060200180831161028557829003601f168201915b505050505081526020016002820154815250509050600081604001511180156102ce5750818160400151145b156103295780602001518684815181106102eb576102ea610d72565b5b6020026020010181905250806040015185848151811061030e5761030d610d72565b5b602002602001018181525050828061032590610da1565b9350505b50808061033590610da1565b91505061019c565b50838395509550505050509091565b6000600260008381526020019081526020016000206040518060600160405290816000820160009054906101000a900473ffffffffffffffffffffffffffffffffffffffff1673ffffffffffffffffffffffffffffffffffffffff1673ffffffffffffffffffffffffffffffffffffffff1681526020016001820180546103d290610d40565b80601f01602080910402602001604051908101604052809291908181526020018280546103fe90610d40565b801561044b5780601f106104205761010080835404028352916020019161044b565b820191906000526020600020905b81548152906001019060200180831161042e57829003601f168201915b50505050508152602001600282015481525050905060008160400151116104a7576040517f08c379a000000000000000000000000000000000000000000000000000000000815260040161049e90610e6d565b60405180910390fd5b60026000838152602001908152602001600020600080820160006101000a81549073ffffffffffffffffffffffffffffffffffffffff02191690556001820160006104f2919061073a565b600282016000905550506001600081548092919061050f90610e8d565b9190505550806004600084815260200190815260200160002060008201518160000160006101000a81548173ffffffffffffffffffffffffffffffffffffffff021916908373ffffffffffffffffffffffffffffffffffffffff160217905550602082015181600101908051906020019061058b92919061077a565b5060408201518160020155905050600360008154809291906105ac90610da1565b91905055505050565b6000600154905090565b60008060016003546001546105d49190610cbb565b6105de9190610cbb565b9050600054811115610625576040517f08c379a000000000000000000000000000000000000000000000000000000000815260040161061c90610f29565b60405180910390fd5b600060405180606001604052803373ffffffffffffffffffffffffffffffffffffffff168152602001858152602001838152509050806002600084815260200190815260200160002060008201518160000160006101000a81548173ffffffffffffffffffffffffffffffffffffffff021916908373ffffffffffffffffffffffffffffffffffffffff16021790555060208201518160010190805190602001906106d192919061077a565b5060408201518160020155905050600160008154809291906106f290610da1565b91905055507f78dd220db048d9b2da8736454866629433b91fbcf4df9ed508c699855473afcf3383604051610728929190610f8a565b60405180910390a18192505050919050565b50805461074690610d40565b6000825580601f106107585750610777565b601f0160209004906000526020600020908101906107769190610800565b5b50565b82805461078690610d40565b90600052602060002090601f0160209004810192826107a857600085556107ef565b82601f106107c157805160ff19168380011785556107ef565b828001600101855582156107ef579182015b828111156107ee5782518255916020019190600101906107d3565b5b5090506107fc9190610800565b5090565b5b80821115610819576000816000905550600101610801565b5090565b600081519050919050565b600082825260208201905092915050565b6000819050602082019050919050565b600081519050919050565b600082825260208201905092915050565b60005b83811015610883578082015181840152602081019050610868565b83811115610892576000848401525b50505050565b6000601f19601f8301169050919050565b60006108b482610849565b6108be8185610854565b93506108ce818560208601610865565b6108d781610898565b840191505092915050565b60006108ee83836108a9565b905092915050565b6000602082019050919050565b600061090e8261081d565b6109188185610828565b93508360208202850161092a85610839565b8060005b85811015610966578484038952815161094785826108e2565b9450610952836108f6565b925060208a0199505060018101905061092e565b50829750879550505050505092915050565b600081519050919050565b600082825260208201905092915050565b6000819050602082019050919050565b6000819050919050565b6109b7816109a4565b82525050565b60006109c983836109ae565b60208301905092915050565b6000602082019050919050565b60006109ed82610978565b6109f78185610983565b9350610a0283610994565b8060005b83811015610a33578151610a1a88826109bd565b9750610a25836109d5565b925050600181019050610a06565b5085935050505092915050565b60006040820190508181036000830152610a5a8185610903565b90508181036020830152610a6e81846109e2565b90509392505050565b6000604051905090565b600080fd5b600080fd5b610a94816109a4565b8114610a9f57600080fd5b50565b600081359050610ab181610a8b565b92915050565b600060208284031215610acd57610acc610a81565b5b6000610adb84828501610aa2565b91505092915050565b610aed816109a4565b82525050565b6000602082019050610b086000830184610ae4565b92915050565b600080fd5b600080fd5b7f4e487b7100000000000000000000000000000000000000000000000000000000600052604160045260246000fd5b610b5082610898565b810181811067ffffffffffffffff82111715610b6f57610b6e610b18565b5b80604052505050565b6000610b82610a77565b9050610b8e8282610b47565b919050565b600067ffffffffffffffff821115610bae57610bad610b18565b5b610bb782610898565b9050602081019050919050565b82818337600083830152505050565b6000610be6610be184610b93565b610b78565b905082815260208101848484011115610c0257610c01610b13565b5b610c0d848285610bc4565b509392505050565b600082601f830112610c2a57610c29610b0e565b5b8135610c3a848260208601610bd3565b91505092915050565b600060208284031215610c5957610c58610a81565b5b600082013567ffffffffffffffff811115610c7757610c76610a86565b5b610c8384828501610c15565b91505092915050565b7f4e487b7100000000000000000000000000000000000000000000000000000000600052601160045260246000fd5b6000610cc6826109a4565b9150610cd1836109a4565b9250827fffffffffffffffffffffffffffffffffffffffffffffffffffffffffffffffff03821115610d0657610d05610c8c565b5b828201905092915050565b7f4e487b7100000000000000000000000000000000000000000000000000000000600052602260045260246000fd5b60006002820490506001821680610d5857607f821691505b60208210811415610d6c57610d6b610d11565b5b50919050565b7f4e487b7100000000000000000000000000000000000000000000000000000000600052603260045260246000fd5b6000610dac826109a4565b91507fffffffffffffffffffffffffffffffffffffffffffffffffffffffffffffffff821415610ddf57610dde610c8c565b5b600182019050919050565b600082825260208201905092915050565b7f417474657374207468617420616e6e6f756e63656d656e74206973207374696c60008201527f6c20616c69766500000000000000000000000000000000000000000000000000602082015250565b6000610e57602783610dea565b9150610e6282610dfb565b604082019050919050565b60006020820190508181036000830152610e8681610e4a565b9050919050565b6000610e98826109a4565b91506000821415610eac57610eab610c8c565b5b600182039050919050565b7f41626f727420616e6e6f756e63696e672e2e2e28426f6172642068617320657860008201527f636565646564206d6178206c696d697429000000000000000000000000000000602082015250565b6000610f13603183610dea565b9150610f1e82610eb7565b604082019050919050565b60006020820190508181036000830152610f4281610f06565b9050919050565b600073ffffffffffffffffffffffffffffffffffffffff82169050919050565b6000610f7482610f49565b9050919050565b610f8481610f69565b82525050565b6000604082019050610f9f6000830185610f7b565b610fac6020830184610ae4565b939250505056fea264697066735822122008f959ab51fea9bc64d8df9a42cb25adee3a833b819cf114c46be5748559152764736f6c63430008090033",
  "linkReferences": {},
  "deployedLinkReferences": {}
}