{
  "_format": "hh-sol-artifact-1",
  "contractName": "AnnouncementBoard",
  "sourceName": "contracts/AnnouncementBoard.sol",
  "abi": [
    {
      "inputs": [
        {
          "internalType": "uint256",
          "name": "_maxAnnouncementCount",
          "type": "uint256"
        }
      ],
      "stateMutability": "nonpayable",
      "type": "constructor"
    },
    {
      "inputs": [
        {
          "internalType": "string",
          "name": "_announcement",
          "type": "string"
        }
      ],
      "name": "announce",
      "outputs": [],
      "stateMutability": "nonpayable",
      "type": "function"
    },
    {
      "inputs": [
        {
          "internalType": "uint256",
          "name": "",
          "type": "uint256"
        }
      ],
      "name": "announcements",
      "outputs": [
        {
          "internalType": "address",
          "name": "publisher",
          "type": "address"
        },
        {
          "internalType": "string",
          "name": "content",
          "type": "string"
        }
      ],
      "stateMutability": "view",
      "type": "function"
    }
  ],
  "bytecode": "0x608060405234801561001057600080fd5b506040516105603803806105608339818101604052602081101561003357600080fd5b8101908080519060200190929190505050336000806101000a81548173ffffffffffffffffffffffffffffffffffffffff021916908373ffffffffffffffffffffffffffffffffffffffff16021790555080600181905550506104c58061009b6000396000f3fe608060405234801561001057600080fd5b50600436106100365760003560e01c80631bcfbe311461003b578063ea0a5237146100ff575b600080fd5b6100676004803603602081101561005157600080fd5b81019080803590602001909291905050506101ba565b604051808373ffffffffffffffffffffffffffffffffffffffff16815260200180602001828103825283818151815260200191508051906020019080838360005b838110156100c35780820151818401526020810190506100a8565b50505050905090810190601f1680156100f05780820380516001836020036101000a031916815260200191505b50935050505060405180910390f35b6101b86004803603602081101561011557600080fd5b810190808035906020019064010000000081111561013257600080fd5b82018360208201111561014457600080fd5b8035906020019184600183028401116401000000008311171561016657600080fd5b91908080601f016020809104026020016040519081016040528093929190818152602001838380828437600081840152601f19601f8201169050808301925050505050505091929192905050506102a3565b005b600281815481106101c757fe5b90600052602060002090600202016000915090508060000160009054906101000a900473ffffffffffffffffffffffffffffffffffffffff1690806001018054600181600116156101000203166002900480601f0160208091040260200160405190810160405280929190818152602001828054600181600116156101000203166002900480156102995780601f1061026e57610100808354040283529160200191610299565b820191906000526020600020905b81548152906001019060200180831161027c57829003601f168201915b5050505050905082565b60015460028054905010610302576040517f08c379a000000000000000000000000000000000000000000000000000000000815260040180806020018281038252603181526020018061045f6031913960400191505060405180910390fd5b600260405180604001604052803373ffffffffffffffffffffffffffffffffffffffff16815260200183815250908060018154018082558091505060019003906000526020600020906002020160009091909190915060008201518160000160006101000a81548173ffffffffffffffffffffffffffffffffffffffff021916908373ffffffffffffffffffffffffffffffffffffffff16021790555060208201518160010190805190602001906103bb9291906103c1565b50505050565b828054600181600116156101000203166002900490600052602060002090601f016020900481019282601f1061040257805160ff1916838001178555610430565b82800160010185558215610430579182015b8281111561042f578251825591602001919060010190610414565b5b50905061043d9190610441565b5090565b5b8082111561045a576000816000905550600101610442565b509056fe41626f727420616e6e6f756e63696e672e2e2e28426f61726420686173206578636565646564206d6178206c696d697429a2646970667358221220dbf1c177d52167ea3c822c336bb94d59f7366d215805a03a9e90f50f6a97eabe64736f6c63430007030033",
  "linkReferences": {},
  "deployedLinkReferences": {}
}