{
  "_format": "hh-sol-artifact-1",
  "contractName": "AnnouncementBoard",
  "sourceName": "contracts/AnnouncementBoard.sol",
  "abi": [
    {
      "inputs": [
        {
          "internalType": "uint256",
          "name": "_maxAnnouncementCount",
          "type": "uint256"
        }
      ],
      "stateMutability": "nonpayable",
      "type": "constructor"
    },
    {
      "inputs": [
        {
          "internalType": "string",
          "name": "_announcement",
          "type": "string"
        }
      ],
      "name": "announce",
      "outputs": [
        {
          "internalType": "uint256",
          "name": "",
          "type": "uint256"
        }
      ],
      "stateMutability": "nonpayable",
      "type": "function"
    },
    {
      "inputs": [
        {
          "internalType": "uint256",
          "name": "nonce",
          "type": "uint256"
        }
      ],
      "name": "takedown",
      "outputs": [],
      "stateMutability": "nonpayable",
      "type": "function"
    }
  ],
  "bytecode": "0x608060405234801561001057600080fd5b5060405161071d38038061071d8339818101604052602081101561003357600080fd5b81019080805190602001909291905050508060008190555060006001819055506000600381905550506106b28061006b6000396000f3fe608060405234801561001057600080fd5b50600436106100365760003560e01c80635bcbedcc1461003b578063ea0a523714610069575b600080fd5b6100676004803603602081101561005157600080fd5b8101908080359060200190929190505050610138565b005b6101226004803603602081101561007f57600080fd5b810190808035906020019064010000000081111561009c57600080fd5b8201836020820111156100ae57600080fd5b803590602001918460018302840111640100000000831117156100d057600080fd5b91908080601f016020809104026020016040519081016040528093929190818152602001838380828437600081840152601f19601f8201169050808301925050505050505091929192905050506103c2565b6040518082815260200191505060405180910390f35b610140610508565b600260008381526020019081526020016000206040518060600160405290816000820160009054906101000a900473ffffffffffffffffffffffffffffffffffffffff1673ffffffffffffffffffffffffffffffffffffffff1673ffffffffffffffffffffffffffffffffffffffff168152602001600182018054600181600116156101000203166002900480601f01602080910402602001604051908101604052809291908181526020018280546001816001161561010002031660029004801561024d5780601f106102225761010080835404028352916020019161024d565b820191906000526020600020905b81548152906001019060200180831161023057829003601f168201915b50505050508152602001600282015481525050905060008160400151116102bf576040517f08c379a00000000000000000000000000000000000000000000000000000000081526004018080602001828103825260278152602001806106566027913960400191505060405180910390fd5b60026000838152602001908152602001600020600080820160006101000a81549073ffffffffffffffffffffffffffffffffffffffff021916905560018201600061030a919061053f565b6002820160009055505060016000815480929190600190039190505550806004600084815260200190815260200160002060008201518160000160006101000a81548173ffffffffffffffffffffffffffffffffffffffff021916908373ffffffffffffffffffffffffffffffffffffffff160217905550602082015181600101908051906020019061039e929190610587565b50604082015181600201559050506003600081548092919060010191905055505050565b60008060016003546001540101905060005481111561042c576040517f08c379a00000000000000000000000000000000000000000000000000000000081526004018080602001828103825260318152602001806106256031913960400191505060405180910390fd5b610434610508565b60405180606001604052803373ffffffffffffffffffffffffffffffffffffffff168152602001858152602001838152509050806002600084815260200190815260200160002060008201518160000160006101000a81548173ffffffffffffffffffffffffffffffffffffffff021916908373ffffffffffffffffffffffffffffffffffffffff16021790555060208201518160010190805190602001906104de929190610587565b50604082015181600201559050506001600081548092919060010191905055508192505050919050565b6040518060600160405280600073ffffffffffffffffffffffffffffffffffffffff16815260200160608152602001600081525090565b50805460018160011615610100020316600290046000825580601f106105655750610584565b601f0160209004906000526020600020908101906105839190610607565b5b50565b828054600181600116156101000203166002900490600052602060002090601f016020900481019282601f106105c857805160ff19168380011785556105f6565b828001600101855582156105f6579182015b828111156105f55782518255916020019190600101906105da565b5b5090506106039190610607565b5090565b5b80821115610620576000816000905550600101610608565b509056fe41626f727420616e6e6f756e63696e672e2e2e28426f61726420686173206578636565646564206d6178206c696d697429417474657374207468617420616e6e6f756e63656d656e74206973207374696c6c20616c697665a264697066735822122033602565118dbd56e777a0b0d4c99201dace0376c3b346e7b70fcd4ba82a802a64736f6c63430007030033",
  "linkReferences": {},
  "deployedLinkReferences": {}
}