{
  "_format": "hh-sol-artifact-1",
  "contractName": "AnnouncementBoard",
  "sourceName": "contracts/AnnouncementBoard.sol",
  "abi": [
    {
      "inputs": [
        {
          "internalType": "uint256",
          "name": "_maxAnnouncementCount",
          "type": "uint256"
        }
      ],
      "stateMutability": "nonpayable",
      "type": "constructor"
    },
    {
      "anonymous": false,
      "inputs": [
        {
          "indexed": false,
          "internalType": "address",
          "name": "publisher",
          "type": "address"
        },
        {
          "indexed": false,
          "internalType": "string",
          "name": "content",
          "type": "string"
        },
        {
          "indexed": false,
          "internalType": "uint256",
          "name": "nonce",
          "type": "uint256"
        }
      ],
      "name": "Announce",
      "type": "event"
    },
    {
      "inputs": [
        {
          "internalType": "string",
          "name": "_announcement",
          "type": "string"
        }
      ],
      "name": "announce",
      "outputs": [
        {
          "internalType": "uint256",
          "name": "",
          "type": "uint256"
        }
      ],
      "stateMutability": "nonpayable",
      "type": "function"
    },
    {
      "inputs": [],
      "name": "getAliveAnnouncements",
      "outputs": [
        {
          "internalType": "address[]",
          "name": "",
          "type": "address[]"
        },
        {
          "internalType": "string[]",
          "name": "",
          "type": "string[]"
        },
        {
          "internalType": "uint256[]",
          "name": "",
          "type": "uint256[]"
        }
      ],
      "stateMutability": "view",
      "type": "function"
    },
    {
      "inputs": [],
      "name": "getAnnouncementsCount",
      "outputs": [
        {
          "internalType": "uint256",
          "name": "",
          "type": "uint256"
        }
      ],
      "stateMutability": "view",
      "type": "function"
    },
    {
      "inputs": [
        {
          "internalType": "uint256",
          "name": "nonce",
          "type": "uint256"
        }
      ],
      "name": "takedown",
      "outputs": [],
      "stateMutability": "nonpayable",
      "type": "function"
    }
  ],
  "bytecode": "0x60806040523480156200001157600080fd5b506040516200128c3803806200128c833981810160405281019062000037919062000095565b806000819055506000600181905550600060038190555050620000c7565b600080fd5b6000819050919050565b6200006f816200005a565b81146200007b57600080fd5b50565b6000815190506200008f8162000064565b92915050565b600060208284031215620000ae57620000ad62000055565b5b6000620000be848285016200007e565b91505092915050565b6111b580620000d76000396000f3fe608060405234801561001057600080fd5b506004361061004c5760003560e01c80631b34fb02146100515780635bcbedcc146100715780635fabd0cd1461008d578063ea0a5237146100ab575b600080fd5b6100596100db565b60405161006893929190610bdb565b60405180910390f35b61008b60048036038101906100869190610c67565b6103f5565b005b61009561065e565b6040516100a29190610ca3565b60405180910390f35b6100c560048036038101906100c09190610df3565b610668565b6040516100d29190610ca3565b60405180910390f35b6060806060600060015467ffffffffffffffff8111156100fe576100fd610cc8565b5b60405190808252806020026020018201604052801561012c5781602001602082028036833780820191505090505b509050600060015467ffffffffffffffff81111561014d5761014c610cc8565b5b60405190808252806020026020018201604052801561018057816020015b606081526020019060019003908161016b5790505b509050600060015467ffffffffffffffff8111156101a1576101a0610cc8565b5b6040519080825280602002602001820160405280156101cf5781602001602082028036833780820191505090505b50905060006003546001546101e49190610e6b565b9050600080600190505b8281116103e1576000600260008381526020019081526020016000206040518060600160405290816000820160009054906101000a900473ffffffffffffffffffffffffffffffffffffffff1673ffffffffffffffffffffffffffffffffffffffff1673ffffffffffffffffffffffffffffffffffffffff16815260200160018201805461027b90610ef0565b80601f01602080910402602001604051908101604052809291908181526020018280546102a790610ef0565b80156102f45780601f106102c9576101008083540402835291602001916102f4565b820191906000526020600020905b8154815290600101906020018083116102d757829003601f168201915b505050505081526020016002820154815250509050600081604001511180156103205750818160400151145b156103cd57806000015187848151811061033d5761033c610f22565b5b602002602001019073ffffffffffffffffffffffffffffffffffffffff16908173ffffffffffffffffffffffffffffffffffffffff1681525050806020015186848151811061038f5761038e610f22565b5b602002602001018190525080604001518584815181106103b2576103b1610f22565b5b60200260200101818152505082806103c990610f51565b9350505b5080806103d990610f51565b9150506101ee565b508484849750975097505050505050909192565b6000600260008381526020019081526020016000206040518060600160405290816000820160009054906101000a900473ffffffffffffffffffffffffffffffffffffffff1673ffffffffffffffffffffffffffffffffffffffff1673ffffffffffffffffffffffffffffffffffffffff16815260200160018201805461047b90610ef0565b80601f01602080910402602001604051908101604052809291908181526020018280546104a790610ef0565b80156104f45780601f106104c9576101008083540402835291602001916104f4565b820191906000526020600020905b8154815290600101906020018083116104d757829003601f168201915b5050505050815260200160028201548152505090506000816040015111610550576040517f08c379a00000000000000000000000000000000000000000000000000000000081526004016105479061101d565b60405180910390fd5b60026000838152602001908152602001600020600080820160006101000a81549073ffffffffffffffffffffffffffffffffffffffff021916905560018201600061059b91906107e5565b60028201600090555050600160008154809291906105b89061103d565b9190505550806004600084815260200190815260200160002060008201518160000160006101000a81548173ffffffffffffffffffffffffffffffffffffffff021916908373ffffffffffffffffffffffffffffffffffffffff1602179055506020820151816001019080519060200190610634929190610825565b50604082015181600201559050506003600081548092919061065590610f51565b91905055505050565b6000600154905090565b600080600160035460015461067d9190610e6b565b6106879190610e6b565b90506000548111156106ce576040517f08c379a00000000000000000000000000000000000000000000000000000000081526004016106c5906110d9565b60405180910390fd5b600060405180606001604052803373ffffffffffffffffffffffffffffffffffffffff168152602001858152602001838152509050806002600084815260200190815260200160002060008201518160000160006101000a81548173ffffffffffffffffffffffffffffffffffffffff021916908373ffffffffffffffffffffffffffffffffffffffff160217905550602082015181600101908051906020019061077a929190610825565b50604082015181600201559050506001600081548092919061079b90610f51565b91905055507fab4170238dfe05fa19c10883472bfa0ca7d9861ab563cfdbb21190ce22fa54803385846040516107d393929190611141565b60405180910390a18192505050919050565b5080546107f190610ef0565b6000825580601f106108035750610822565b601f01602090049060005260206000209081019061082191906108ab565b5b50565b82805461083190610ef0565b90600052602060002090601f016020900481019282610853576000855561089a565b82601f1061086c57805160ff191683800117855561089a565b8280016001018555821561089a579182015b8281111561089957825182559160200191906001019061087e565b5b5090506108a791906108ab565b5090565b5b808211156108c45760008160009055506001016108ac565b5090565b600081519050919050565b600082825260208201905092915050565b6000819050602082019050919050565b600073ffffffffffffffffffffffffffffffffffffffff82169050919050565b600061091f826108f4565b9050919050565b61092f81610914565b82525050565b60006109418383610926565b60208301905092915050565b6000602082019050919050565b6000610965826108c8565b61096f81856108d3565b935061097a836108e4565b8060005b838110156109ab5781516109928882610935565b975061099d8361094d565b92505060018101905061097e565b5085935050505092915050565b600081519050919050565b600082825260208201905092915050565b6000819050602082019050919050565b600081519050919050565b600082825260208201905092915050565b60005b83811015610a1e578082015181840152602081019050610a03565b83811115610a2d576000848401525b50505050565b6000601f19601f8301169050919050565b6000610a4f826109e4565b610a5981856109ef565b9350610a69818560208601610a00565b610a7281610a33565b840191505092915050565b6000610a898383610a44565b905092915050565b6000602082019050919050565b6000610aa9826109b8565b610ab381856109c3565b935083602082028501610ac5856109d4565b8060005b85811015610b015784840389528151610ae28582610a7d565b9450610aed83610a91565b925060208a01995050600181019050610ac9565b50829750879550505050505092915050565b600081519050919050565b600082825260208201905092915050565b6000819050602082019050919050565b6000819050919050565b610b5281610b3f565b82525050565b6000610b648383610b49565b60208301905092915050565b6000602082019050919050565b6000610b8882610b13565b610b928185610b1e565b9350610b9d83610b2f565b8060005b83811015610bce578151610bb58882610b58565b9750610bc083610b70565b925050600181019050610ba1565b5085935050505092915050565b60006060820190508181036000830152610bf5818661095a565b90508181036020830152610c098185610a9e565b90508181036040830152610c1d8184610b7d565b9050949350505050565b6000604051905090565b600080fd5b600080fd5b610c4481610b3f565b8114610c4f57600080fd5b50565b600081359050610c6181610c3b565b92915050565b600060208284031215610c7d57610c7c610c31565b5b6000610c8b84828501610c52565b91505092915050565b610c9d81610b3f565b82525050565b6000602082019050610cb86000830184610c94565b92915050565b600080fd5b600080fd5b7f4e487b7100000000000000000000000000000000000000000000000000000000600052604160045260246000fd5b610d0082610a33565b810181811067ffffffffffffffff82111715610d1f57610d1e610cc8565b5b80604052505050565b6000610d32610c27565b9050610d3e8282610cf7565b919050565b600067ffffffffffffffff821115610d5e57610d5d610cc8565b5b610d6782610a33565b9050602081019050919050565b82818337600083830152505050565b6000610d96610d9184610d43565b610d28565b905082815260208101848484011115610db257610db1610cc3565b5b610dbd848285610d74565b509392505050565b600082601f830112610dda57610dd9610cbe565b5b8135610dea848260208601610d83565b91505092915050565b600060208284031215610e0957610e08610c31565b5b600082013567ffffffffffffffff811115610e2757610e26610c36565b5b610e3384828501610dc5565b91505092915050565b7f4e487b7100000000000000000000000000000000000000000000000000000000600052601160045260246000fd5b6000610e7682610b3f565b9150610e8183610b3f565b9250827fffffffffffffffffffffffffffffffffffffffffffffffffffffffffffffffff03821115610eb657610eb5610e3c565b5b828201905092915050565b7f4e487b7100000000000000000000000000000000000000000000000000000000600052602260045260246000fd5b60006002820490506001821680610f0857607f821691505b60208210811415610f1c57610f1b610ec1565b5b50919050565b7f4e487b7100000000000000000000000000000000000000000000000000000000600052603260045260246000fd5b6000610f5c82610b3f565b91507fffffffffffffffffffffffffffffffffffffffffffffffffffffffffffffffff821415610f8f57610f8e610e3c565b5b600182019050919050565b600082825260208201905092915050565b7f417474657374207468617420616e6e6f756e63656d656e74206973207374696c60008201527f6c20616c69766500000000000000000000000000000000000000000000000000602082015250565b6000611007602783610f9a565b915061101282610fab565b604082019050919050565b6000602082019050818103600083015261103681610ffa565b9050919050565b600061104882610b3f565b9150600082141561105c5761105b610e3c565b5b600182039050919050565b7f41626f727420616e6e6f756e63696e672e2e2e28426f6172642068617320657860008201527f636565646564206d6178206c696d697429000000000000000000000000000000602082015250565b60006110c3603183610f9a565b91506110ce82611067565b604082019050919050565b600060208201905081810360008301526110f2816110b6565b9050919050565b61110281610914565b82525050565b6000611113826109e4565b61111d8185610f9a565b935061112d818560208601610a00565b61113681610a33565b840191505092915050565b600060608201905061115660008301866110f9565b81810360208301526111688185611108565b90506111776040830184610c94565b94935050505056fea2646970667358221220a22dc8d2943299fb64326ef4805476cae3ccf9f03ab4ca88c72075d795f8c6b064736f6c63430008090033",
  "linkReferences": {},
  "deployedLinkReferences": {}
}